:020000040800F2
:10000000980D0020010100082D150008890B00083B
:10001000E1140008A1060008B72B0008000000004A
:10002000000000000000000000000000C91C0008E3
:10003000A5060008000000008D1A0008DD1D00085C
:100040001B0100081B0100081B0100081B01000820
:100050001B0100081B0100081B0100081B01000810
:100060001B0100081B0100081B0100081B01000800
:100070001B0100081B0100081B0100081B010008F0
:100080001B0100081B0100081B0100081B010008E0
:100090001B0100081B0100081B0100081B010008D0
:1000A0001B0100081B0100081B0100081B010008C0
:1000B0001B0100081B010008CD1E00081B010008E1
:1000C0001B0100081B0100081B0100081B010008A0
:1000D0001B01000831290008952900081B010008B0
:1000E0001B0100081B0100081B010008DFF80CD0F1
:1000F00000F0B4FA00480047C92C0008980D002011
:100100000648804706480047FEE7FEE7FEE7FEE7B1
:10011000FEE7FEE7FEE7FEE7FEE7FEE7E11D00087B
:10012000ED0000082DE9F0410024061B254671F181
:10013000000605DA01240027D0EB070067EB010178
:10014000161E73F1000605DA0027D2EB070201251F
:1001500067EB030300F0AEF986460E4617469C4651
:10016000AC4204D00025D0EB050E65EB010624B1AE
:100170000020D2EB000760EB030C704631463A4694
:100180006346BDE8F081F0B480EA0102D40F42007A
:10019000B2EB410F02D20246084611464A0042D055
:1001A000C30DDDB2C1F3C752AD1A202D35DAC1F34C
:1001B000160141F4000204B15242C5F1200602FAD0
:1001C00006F12A411044B3EBD05F23D0C4B1012D16
:1001D000A0EBC35009DCF0BC4FF0004202EAC3526E
:1001E000DBB200F5000000F0AEB9400000F1807015
:1001F00000EBC350A0F1807040EAD170490009E0E3
:10020000490841EAC071A0EBC35000F50000400866
:1002100000EBC350F0BC00F08DB96142012202EB4B
:100220004101001BF6E7F0BC704781F00041AAE7EE
:1002300080F00040A7E780EA010210B502F0004319
:10024000400022D04A001FD0010E01EB1261C0F322
:100250005600C2F3560240F4000042F40002A0FB34
:10026000022000047F39140400D0401C50EA1240E0
:1002700001D44000491EC2B20C0604EBD010401C51
:100280004008802A02D003E0002010BD20F00100C9
:10029000002900DA0020184310BD30B480EA0102C2
:1002A00002F0004530F0004221F0004013D090B140
:1002B000C30DD40DC2F31601C0F31600E41A41F4C5
:1002C000000140F400027D34914201D3641C00E03F
:1002D0004900002C02DA30BC002070474FF40000C7
:1002E0000023914201D3891A034340084FEA410198
:1002F000F7D151B1914202D14FF0004105E002D255
:100300004FF0010101E06FF0010103EBC4502844FC
:1003100030BC00F00FB92DE9F04D81EA030404F080
:10032000004B21F0004514464FF0000A23F0004135
:1003300050EA050220D054EA01021DD0C5F30A5745
:100340000246C5F31303C1F31300C1F30A5640F488
:10035000801543F48013A7EB0608101BD64608F25D
:10036000FD3873EB050002D308F1010801E0921893
:100370005B41B8F1000F03DA00200146BDE8F08DC3
:1003800000204FF48011064684460EE0171B73EBE5
:10039000050705D3121B63EB050306434CEA010C6A
:1003A00049084FEA300092185B4150EA0107EDD14D
:1003B00052EA030012D082EA040083EA05010843EE
:1003C00005D0101BAB4106D20122002306E000221B
:1003D0004FF0004302E06FF0010253101AEB0600E9
:1003E0004CEB085110EB0A0041EB0B01BDE8F04D5E
:1003F00000F0D7B8C10F80EAE0700844CA0796231E
:10040000002100F0A0B896230022114600F09BB80E
:100410000EB5C10F80EAE0700844CA07002140F21F
:1004200033438DE80E000A460B4600F0C9F803B0CE
:1004300000BD00F0004220F00040C10DC0F31600E6
:1004400040F400007F2901DA00207047962903DC80
:10045000C1F19601C84001E096398840002AF4D0E5
:100460004042704720F00040C10DC0F3160040F438
:1004700000007F2901DA00207047962903DCC1F1D2
:100480009601C8407047963988407047002801DBC4
:10049000C0F10040002901DBC1F1004181427047F9
:1004A000002801DBC0F10040002901DBC1F100415F
:1004B000884270472DE9F05F0546002092469B4632
:1004C00088460646814640241BE02846414647466A
:1004D000224600F0D5F853465A46C01A914110D32F
:1004E00011461846224600F016F82D1A67EB01084F
:1004F0004F4622460120002100F00DF817EB0009BD
:100500004E41201EA4F10104DFDC484631462A4654
:100510004346BDE8F09F202A04DB203A00FA02F1AE
:10052000002070479140C2F1200320FA03F31943E1
:10053000904070470029A8BF7047401C490008BF81
:1005400020F00100704710B4B0FA80FC00FA0CF003
:1005500050EA010404BF10BC704749B1CCF120043B
:1005600021FA04F411FA0CF118BF012121430843C8
:10057000A3EB0C01CB1D4FEA00614FEA102042BFF4
:10058000002010BC704700EBC35010440029A4BFEA
:1005900010BC7047401C490008BF20F0010010BC8F
:1005A000704710B5141E73F1000408DA401C41F1C5
:1005B000000192185B411A4301D120F0010010BDE7
:1005C0002DE9F04D92469B4611B1B1FA81F202E05D
:1005D000B0FA80F220329046FFF79DFF04460F46A6
:1005E00040EA0A0041EA0B0153465A46084313D039
:1005F000114653EA010019D0C8F14002504600F0FC
:100600003FF805460E46504659464246FFF783FFDF
:10061000084305D0012004E020463946BDE8F08DAE
:100620000020054346EAE0762C4337430A986305E9
:10063000E40AA0EB08000022FD0A44EA47540A300D
:1006400002D500200146E9E7010510196941DDE9FD
:10065000084500196941BDE8F04DA2E7064C074D79
:1006600006E0E06840F0010394E807009847103482
:10067000AC42F6D3FFF73EFD80460008A0460008D6
:10068000202A04DB203A21FA02F00021704721FAE7
:1006900002F3D040C2F1200291400843194670474E
:1006A00000BFFEE770470000002016490880488020
:1006B0008880C880088148814FF49660888108202E
:1006C000C881322008824FF49660488208208882D0
:1006D0003220C88240F27620C883052008844FF477
:1006E0009670488440F2762088840520C8844FF4B0
:1006F0009670088580000886052048863220888606
:1007000070470000B40600202DE9F04102460025A4
:100710000026002000230024002791F803C00CF0DD
:100720000F0591F803C00CF0100CBCF1000F03D0C2
:1007300091F802C04CEA050591F800C0BCF1000F29
:1007400031D0146800202BE04FF0010C0CFA00F3BC
:10075000B1F800C00CEA03069E4220D183004FF09E
:100760000F0C0CFA03F7BC4305FA03FC4CEA040433
:1007700091F803C0BCF1280F06D14FF0010C0CFA20
:1007800000FCC2F814C00AE091F803C0BCF1480FA5
:1007900005D14FF0010C0CFA00FCC2F810C0401C4F
:1007A0000828D1D31460B1F800C0BCF1FF0F34DDCC
:1007B000546800202EE000F1080C4FF0010808FA00
:1007C0000CF3B1F800C00CEA03069E4221D183006D
:1007D0004FF00F0C0CFA03F7BC4305FA03FC4CEA8C
:1007E000040491F803C0BCF1280F05D100F1080CF6
:1007F00008FA0CF8C2F8148091F803C0BCF1480F55
:1008000007D100F1080C4FF0010808FA0CF8C2F803
:100810001080401C0828CED35460BDE8F081000051
:10082000F0B50A46002300240021002500F0004610
:10083000B6F1004F02D11D4EF16901E01B4E716807
:10084000C0F3034583B200F44016B6F5401F08D14B
:1008500021F07061154E766826F07066134F7E6049
:1008600012E000F48016B6F5801F06D1032606FAC2
:1008700005F4A14341F0706106E0460D360103FA2C
:1008800006F6B14341F0706122B1460D360103FA1C
:1008900006F6314300F00046B6F1004F02D1034E98
:1008A000F16101E0014E7160F0BD00000000014007
:1008B000416170470161704710B500200F49086021
:1008C0000F48006820F470200D4908600846006851
:1008D00040F44030086000200A49C1F8900105202A
:1008E00002F0C2F9012005490860052002F0BCF9B8
:1008F00000200449C1F88C0110BD00008C81214208
:10090000000C01400080214208B50121082001F0BF
:1009100037F901210D48FFF783FF01210C48FFF74C
:100920007FFF1820ADF8000010208DF80300032091
:100930008DF8020069460748FFF7E6FE01200649E8
:1009400008600649C1F8900108BD000000043000AD
:1009500000023000000C01408C81214200802142C5
:1009600010B500200F4908600F48006820F470207F
:100970000D4908600846006840F4403008600120D6
:100980000A49C1F89001052002F06EF901200549DD
:100990000860052002F068F900200449C1F88C01C4
:1009A00010BD00008C812142000C014000802142DA
:1009B00070B5054600241748006820F470201549DA
:1009C00008600846006840F400200860002616E031
:1009D000002011490860052002F046F901200F4966
:1009E000C1F88C016006040E0B487C38006808B121
:1009F000601CC4B2052002F037F9701CC6B2082E84
:100A0000E6DB15B9FFF7ACFF01E0FFF755FF204625
:100A100070BD0000000C01408C8121420080214209
:100A200070B504461548006820F47020134908602A
:100A30000846006840F44030086000201049086013
:100A4000002517E0E0090E49091D08606006040E44
:100A5000052002F009F901200A49C1F88C0105209E
:100A600002F002F9002006490860052002F0FCF8B7
:100A7000681CC5B2082DE5DB70BD0000000C01400C
:100A80008C8121420080214210B50F48006820F47B
:100A900070200D4908600846006840F44030086046
:100AA00001200A4908600A49C1F88C01052002F0BA
:100AB000DBF8002005490860052002F0D5F8002089
:100AC0000349C1F88C0110BD000C01409081214206
:100AD0000080214210B50F48006820F470200D49B5
:100AE00008600846006840F44030086000200A4969
:100AF00008600A49C1F89001052002F0B5F801200C
:100B0000054908600549C1F89001052002F0ACF8DC
:100B100010BD0000000C01408C8121420080214268
:100B200010B500241548006820F4702013490860AF
:100B30000846006840F40020086001201049086061
:100B4000052002F091F801200E49C1F88C01052022
:100B500002F08AF807E0601CC4B2FA2C03DDFFF74C
:100B6000B9FF012010BD0648803800680028F2D186
:100B70000349091F086000BFF4E70000000C0140B2
:100B8000908121420080214200BFFEE710B54FF462
:100B900080600C49086001F081F84FF40060094959
:100BA0000860012002F060F84FF480600549091FD9
:100BB0000860022002F058F84FF480600149086094
:100BC00010BD0000140C014008B50121082000F000
:100BD000D7FF4FF44060ADF8000010208DF80300FF
:100BE00003208DF8020069460448FFF78DFD4FF49D
:100BF00040610248FFF75EFE08BD0000000C0140A6
:100C000010B54FF480600C49086001F047F84FF4CC
:100C100000600949091F0860012002F025F84FF41F
:100C200080600549091F0860012002F01DF84FF49B
:100C300080600149086010BD140C014070B5054684
:100C4000002401F017F800261AE04FF480601149E3
:100C50000860012002F008F84FF480600D49091F78
:100C600008606006040E0B480C380068C0F3C02012
:100C700008B1601CC4B2012001F0F6FF701CC6B2BE
:100C8000082EE2DB15B1FFF781FF01E0FFF7B8FFA7
:100C9000204670BD140C014070B504460D46164642
:100CA00000F052F8204600F01DF800F083F818B16B
:100CB00000F066F8012070BD284600F013F800F03F
:100CC00079F800F041F8611CC8B200F00BF800F0B0
:100CD00071F80020FFF7B2FF307000F051F80020EB
:100CE000E9E7000070B5044600F0D8FF4FF48060DB
:100CF00014490860002522E004F0800028B14FF478
:100D000000601049091F086003E04FF400600D49BE
:100D100008606006040E012001F0A6FF4FF4806019
:100D20000849091F0860012001F09EFF4FF4806010
:100D300004490860012001F097FF681CC5B2082D26
:100D4000DADB70BD140C014010B500F0A7FF4FF4C2
:100D500000600A49086040100860042001F084FF28
:100D60004FF400600549091D0860042001F07CFF74
:100D70004FF480600149091D086010BD100C01404E
:100D800010B500F08BFF4FF4806009490860400007
:100D90000860042001F068FF4FF480600449091FD7
:100DA000086040000860042001F05EFF10BD0000F4
:100DB000140C014010B5002400F05CFF4FF40060FB
:100DC00011490860012001F04FFF4FF480600E4987
:100DD0000860012001F048FF07E0601CC4B2FA2C53
:100DE00003DDFFF7CDFF012010BD0748083800687C
:100DF000C0F3C0200028F0D14FF480600249091DE3
:100E000008600020F0E70000100C014070B50646B5
:100E10000C461546FFF798FF3046FFF763FFFFF7D4
:100E2000C9FF18B1FFF7ACFF012070BD2046FFF7E6
:100E300059FFFFF7BFFF2846FFF754FFFFF7BAFF40
:100E400018B1FFF79DFF0120EFE7FFF799FF0020A2
:100E5000EBE7000008B50121082000F091FE80209A
:100E6000ADF8000010208DF8030003208DF802007B
:100E700069460248FFF748FC08BD0000000C01402D
:100E800000B589B001210D2000F07AFE0121C802D1
:100E900000F076FE0121032000F062FE40F6C31050
:100EA000ADF8200018208DF8230003208DF82200D3
:100EB00008A96548FFF728FC0320ADF8200018209A
:100EC0008DF8230003208DF8220008A95F48FFF762
:100ED0001BFC40F2CF70ADF8180040F2CF20ADF807
:100EE00014000020ADF81600ADF81A008DF81C00B3
:100EF00005A9574801F014FA6020ADF8040000205D
:100F0000ADF80A00ADF80C000120ADF8060001A90B
:100F10004F4801F0A9F808214D4801F0F1F8602090
:100F2000ADF804000020ADF80A00ADF80C00012077
:100F3000ADF8060001A9464801F0A6F90821444889
:100F400001F0E0F90121424801F037F80121404861
:100F500001F03FF840F2CF70ADF8180040F2CF201A
:100F6000ADF814000020ADF81600ADF81A0005A980
:100F7000384801F0D5F96020ADF804000020ADF844
:100F80000A00ADF80C000120ADF8060001A93148B7
:100F900001F020F908212F4801F06CF96020ADF82C
:100FA00004000020ADF80A00ADF80C000120ADF8F7
:100FB000060001A9274801F067F90821254801F03A
:100FC000A1F90121234800F0F8FF40F2CF70ADF8FD
:100FD000180040F2CF20ADF814000020ADF8160044
:100FE000ADF81A0005A94FF0804001F099F9602092
:100FF000ADF804000020ADF80A00ADF80C000120A7
:10100000ADF8060001A9800701F02EF80821C806F6
:1010100001F076F86020ADF804000020ADF80A0079
:10102000ADF80C000120ADF8060001A9800701F021
:1010300071F80821C80601F0BFF80121880700F007
:10104000BCFF09B000BD000000080140000C0140D9
:10105000002C01400004004010B515E010230DA243
:1010600019460A2000F0B0FC00F0B8FB322001F075
:10107000D5FD10230AA219460A2000F0A5FC00F0B5
:10108000ADFB322001F0CAFD00F05BF80028E5D08E
:1010900010BD00004E6F5F4D5055363035300000AA
:1010A00020202020202020202020000010B5FFF745
:1010B0008BFDFFF7D1FF80216B2000F02DF864201D
:1010C00001F0ACFD01216B2000F026F80021382052
:1010D00000F022F818211B2000F01EF808211C2027
:1010E00000F01AF804211A2000F016F80021192047
:1010F00000F012F80221372000F00EF810BD70B594
:1011000004460D462A462146D020FFF7C5FD08B10A
:10111000012070BD0020FCE770B504460D462A464C
:101120002146D020FFF772FE08B1012070BD0020DB
:10113000FCE708B569467520FFF7E1FF9DF8000060
:1011400008BD10B5FFF7F5FF682801D1012010BDDB
:101150000020FCE738B504460025FFF795FCEC209D
:10116000FFF75EFCFFF7DCFC2046FFF759FCFFF7BA
:10117000D7FCFFF7AFFC0A2001F050FDFFF784FC1D
:10118000EC20FFF74DFCFFF7CBFC0020FFF748FCFD
:10119000FFF7C6FCFFF79EFCFFF776FCED20FFF79C
:1011A0003FFCFFF7BDFC0120FFF702FC8DF80000BB
:1011B0000120FFF7FDFB8DF801000020FFF7F8FB91
:1011C0008DF80200FFF786FC9DF8000001049DF8F1
:1011D000010001EB00209DF802104518284638BD9B
:1011E0002DE9F0475820FFF7B5FF84490860142027
:1011F00001F014FD4820FFF7ADFF8149086014207D
:1012000001F00CFD7F4840697C490968A1EB002092
:101210007D4908607B480023C1687B480068C2178D
:10122000A1FB004703FB007001FB02014FF4807239
:101230002046FEF777FF734A52684FF40043A2FB43
:101240000332C0185141714A03C26E48002301693C
:101250006D480068C617A1FB004703FB007001FB47
:10126000060180222046FEF75DFF664A92684FF431
:101270008033A2FB032380185941654A03C26148A9
:101280008069002260490968CE17A0FB014702FB74
:10129000017100FB06114FF4000200232046FEF707
:1012A00041FF4FF4FA6140185A4908600846006847
:1012B000B0F5FA6F38DA03205349096880FB01134F
:1012C00051480068C617A1FB004703FB007001FBF3
:1012D0000601002202232046FEF724FF4E49086043
:1012E0004C490968A1F5FA6101EB4101494A1268CC
:1012F000A2F5FA6201FB02F000EBD0714910474AF7
:10130000116044490968A1F5FA6101EB8101414A84
:101310001268A2F5FA6201FB02F0C11700EB5171ED
:10132000C9103F4A11601EE0374800684043400042
:10133000C117044600222023FEF7F4FE3649086058
:1013400034490968A1F5FA61324A1268A2F5FA62D5
:1013500001FB02F0C11700EB117109112F4A116056
:1013600000202F4908602A48D0E900302B4909683D
:10137000CA17591A60EB02002A4AC2E90010234832
:10138000D0E9003026490968CA17591A60EB0200F3
:10139000254AC2E900101A48006800231146D1E925
:1013A0000021A0FB026A03FB02A201FB00214FF413
:1013B00000123046FEF7B6FE1A4B0CCB841A61EBD6
:1013C00003014FF4005200232046FEF7ABFE804697
:1013D0000A220023FEF7A6FE144908600D49096899
:1013E0000D4A1268881AFFF713F804460022104BC2
:1013F000FEF791FF0F4A03C2BDE8F087CC00002042
:10140000C800002000090020AC000020C00000201F
:10141000B8000020B0000020E8000020E00000201C
:10142000E4000020F0000020F8000020D800002098
:1014300000005940D000002070B500F041F81420A1
:1014400001F0ECFB002430E0FFF71EFBEC20FFF77F
:10145000E7FAFFF765FBA02101EB4401C8B2FFF7F3
:10146000DFFAFFF75DFBFFF735FB052001F0FCFB22
:10147000FFF70AFBED20FFF7D3FA052001F0F4FB9C
:10148000FFF74EFB0120FFF793FA0546052001F018
:10149000EBFB0020FFF78CFA0646FFF71BFB46EA42
:1014A0000520064941F82400641C072CCCDB0348C6
:1014B000006808B9012070BD0020FCE70009002089
:1014C00010B5FFF7E1FAEC20FFF7AAFAFFF728FBC7
:1014D0001E20FFF7A5FAFFF723FBFFF7FBFA10BD6D
:1014E00000BFFEE730B5BE2800DDBE20BE2900DD0E
:1014F000BE21BE2A00DDBE22BE2B00DDBE23642835
:1015000000DA6420642900DA6421642A00DA6422A3
:10151000642B00DA64234FF08045A8862987024DAA
:101520002A802D1D2B8030BD3C04004070470000F8
:1015300070B5002100230F22C47804B3154C246831
:1015400004F4E064C4F5E064210AC1F10403CA4074
:10155000447804FA03F184781440214309010E4CC5
:101560000678A155047804F01F050124AC400578E5
:101570006D11AD0005F1E025C5F8004109E00478E2
:1015800004F01F050124AC40044D0678761145F89F
:10159000264070BD0CED00E000E400E080E100E0DA
:1015A00002490143024A1160704700000000FA0539
:1015B0000CED00E008B54FF4A060FFF7F1FF1E202E
:1015C0008DF8000001208DF801008DF802008DF8E3
:1015D00003006846FFF7ACFF26208DF800000220CC
:1015E0008DF8010001208DF802008DF80300684697
:1015F000FFF79EFF28208DF8000002208DF80100E3
:101600008DF8020001208DF803006846FFF790FF77
:1016100008BD000030B500240CE0002506E00020E5
:10162000074901EBC5010855681CC5B2802DF6DBE2
:10163000601CC4B2082CF0DB00F0D0F830BD000014
:10164000B4020020F0B5144600267F2801DC3F29B3
:1016500000DDF0BD0B46CF1701EB5777FF10C7F148
:101660000707FAB2CF1701EB5777FF10A1EBC707B7
:10167000FDB2C5F107070123BB40DEB24CB10A4BF6
:1016800003EBC0039B5C3343074F07EBC007BB541E
:1016900008E0054B03EBC0039B5CB343024F07EB31
:1016A000C007BB5400BFD4E7B402002008B5012135
:1016B0000C2000F065FA4FF47040ADF800001020E7
:1016C0008DF8030003208DF8020069463F48FFF7BC
:1016D0001BF84FF440513D48FFF7EAF801203C4920
:1016E00008603C49C1F8B40100203B49086064200F
:1016F00001F094FA01203749C1F8B0010021AE2071
:1017000000F092F90021D52000F08EF90021502040
:1017100000F08AF90021A82000F086F900213F207E
:1017200000F082F90021D32000F07EF90021084664
:1017300000F07AF90021402000F076F900218D2098
:1017400000F072F90021142000F06EF90021202031
:1017500000F06AF90021022000F066F90021A120C2
:1017600000F062F90021C02000F05EF90021DA20CB
:1017700000F05AF90021122000F056F900218120D2
:1017800000F052F90021EF2000F04EF90021D9209D
:1017900000F04AF90021F12000F046F90021DB2099
:1017A00000F042F90021302000F03EF90021A42091
:1017B00000F03AF90021A62000F036F90021AF2010
:1017C00000F032F9FFF726FF08BD0000000C0140D1
:1017D0009001214200802142B081214230B5002495
:1017E0001CE004F1B001C8B2002100F01DF9002195
:1017F000084600F019F90021102000F015F9002525
:1018000008E0084901EBC501085D012100F00CF971
:10181000681CC5B2802DF4DB601CC4B2082CE0DB70
:1018200030BD0000B40200202DE9F84F80460F467D
:1018300016461C46BA462046E31704EB5373DB10EA
:1018400021464FEAE47C04EB5C7C4FEAEC0CA4EB11
:10185000CC0CBCF1000F02D04FF0010C01E04FF0B6
:10186000000C6344224604EBD27C4FEA6C0C03FB71
:101870000CF303F0FF0BA6F12000C6B200254EE0EA
:101880000C2C07D106EB4600274901EB8000405D98
:10189000009013E0102C05D1244800EB0610405DA9
:1018A00000900BE0182C07D106EBC600204901EB95
:1018B0008000405D009001E0BDE8F88F4FF0000926
:1018C00027E0009800F0800028B1394640460A9A87
:1018D000FFF7B8FE09E00A9808B9012000E00020EF
:1018E000024639464046FFF7ADFE00984006000E1E
:1018F0000090781CC7B2A7EB0A00A04205D157465A
:1019000008F1010000F0FF0806E009F1010000F015
:10191000FF09B9F1080FD4DB00BF681CC5B25D45F3
:10192000AEDB00BFC8E70000C02E0008343300085B
:10193000243900082DE9FF4F81B0074691461E4625
:101940000E9D4FF0000A002439E0301B401EC1B24A
:101950000A2001F0BFF9B9FBF0F00A21B0FBF1F267
:1019600001FB1208BAF1000F16D1701EA04213DD60
:10197000B8F1000F0ED10120AB4605EBDB71491029
:1019800001FB04710090C8B22B4620220299FFF798
:101990004BFF12E04FF0010A0120AB4605EBDB7173
:1019A000491001FB04710090C8B208F13001CAB2BD
:1019B0002B460299FFF738FF00BF601CC4B2B44247
:1019C000C3DB05B0BDE8F08FF8B506460F461546F7
:1019D0001C4621E004EBD4714910C1F18001B142F1
:1019E00002DA00263819C7B2C4F14000B84204DA5E
:1019F000002006460746FFF70DFE012000902A78DA
:101A0000234639463046FFF70FFF204604EBD071DE
:101A100006EB6101CEB26D1C28787E2802DC2878A6
:101A20002028D7DAF8BD000010B5144B1960002348
:101A3000134CC4F89031002216E000230F4C241DF3
:101A4000236000F080031BB10123241D236003E009
:101A500000230A4C083423600123084C241D236012
:101A60004306180E531CDAB2082AE6DB0123054CA4
:101A70002360054CC4F8B43110BD0000B48121428C
:101A80000000214290012142008021427047000065
:101A90000120244981F8380023480862234848621D
:101AA0000120234981F83800224808622248486210
:101AB0000120224981F838001B4808621B4848620F
:101AC00001201F4981F838001A4808621A48486204
:101AD00001201C4981F838001B4808621B484862F5
:101AE0004FF07E501A49886200208861C8620863FE
:101AF000086288604860174808600020C8614FF09D
:101B00007E501549886200208861C86208630862B7
:101B10004FF07E5088600020486010480860002028
:101B2000C86170471008002000001643000096446A
:101B30005C07002000000C42000048434C080020D5
:101B400098070020C40800200000A0400000A04129
:101B5000F40600200000204028070020000040403C
:101B600029B1064AD2690243044BDA6104E0034A10
:101B7000D2698243014BDA617047000000100240D5
:101B800029B1064A92690243044B9A6104E0034A70
:101B900092698243014B9A61704700000010024035
:101BA00030B500210022002400232D4D6D6805F082
:101BB0000C0121B1042905D0082923D105E0294DC4
:101BC000056022E0274D05601FE0254D6D6805F496
:101BD0007012234D6D6805F48034022505EB9242A6
:101BE0001CB9214D554305600BE01D4D6D6805F492
:101BF00000351DB11C4D5543056002E0194D55439C
:101C0000056002E0174D056000BF00BF144D6D6810
:101C100005F0F0010909154D6B5C0568DD40456074
:101C20000F4D6D6805F4E061090A104D6B5C456865
:101C3000DD4085600A4D6D6805F46051C90A0B4DA1
:101C40006B5C4568DD40C560054D6D6805F440413D
:101C5000890B074D6B5CC568B5FBF3F5056130BDBD
:101C60000010024000127A0000093D00100100201F
:101C70002001002008B501210820FFF781FF4FF463
:101C80000060ADF8000004208DF8030069460248AA
:101C9000FEF73AFD08BD0000000C014008B5012127
:101CA0000820FFF76DFF4FF40060ADF80000102032
:101CB0008DF8030003208DF8020069460148FEF705
:101CC00023FD08BD000C0140704710B500F002F87C
:101CD00010BD00000CB50020019000903348006852
:101CE00040F480303149086000BF3048006800F49B
:101CF000003000900198401C0190009818B901989C
:101D0000B0F5A06FF1D12948006800F4003010B19F
:101D10000120009001E0002000900098012843D1AC
:101D20002348006840F01000214908600846006818
:101D300020F0030008600846006840F002000860D8
:101D40001A48406819494860084640684860084693
:101D5000406840F4806048600846406820F47C1089
:101D600048600846406840F4E8104860084600684B
:101D700040F08070086000BF0C48006800F0007000
:101D80000028F9D00948406820F00300074948605E
:101D90000846406840F00200486000BF03484068C1
:101DA00000F00C000828F9D10CBD00000010024022
:101DB00000200240042808D14FF0E021096941F0D9
:101DC00004014FF0E022116107E04FF0E0210969C2
:101DD00021F004014FF0E0221161704770470000CC
:101DE00010B51348006840F001001149086008462A
:101DF0004068104908400E494860084600680E498E
:101E000008400B4908600846006820F480200860FC
:101E10000846406820F4FE0048604FF41F008860C8
:101E2000FFF753FF4FF000600449086010BD000049
:101E3000001002400000FFF8FFFFF6FE08ED00E092
:101E400010B5FFF7B7FB00F0C7FE00F0EBF8FFF7A7
:101E500001F84FF4165000F09FFF4FF4E13000F00E
:101E6000EBFFFFF723FCFFF721F9FFF709F8FEF777
:101E70004BFDFFF7E1FAFEF717FC00F0A3FAFFF7BE
:101E800007FEBE231A4619461846FFF72BFB6420AF
:101E90000C4908800B490C3108804FF47A7000F02F
:101EA000BDFE64231A4619461846FFF71BFBBE20E9
:101EB0000449088003490C31088040F2F23002499D
:101EC000086010BD342C0140A400002010B5012191
:101ED0002C4800F08DF800284FD02B480088401C7B
:101EE0002949088029480088401C2849088028483A
:101EF0000088401C2649088026480088401C254947
:101F0000088025480088401C234908802348008811
:101F1000401C224908801C480088052805DB002059
:101F20001949088001201E490870194800880A28AC
:101F300005DB00201649088001201A490870134863
:101F40000088142805DB002010490880012016496C
:101F5000087012480088642805DB00200F490880BB
:101F60000120124908700C480088C82805DB0020B1
:101F70000949088001200E4908700121014800F03C
:101F800019F810BD000800401200002016000020C3
:101F900014000020180000201A0000201C0000205F
:101FA0000F0000200E0000200C0000200D0000207B
:101FB00010000020CA430282704721B1028842F01B
:101FC0000102028004E002884FF6FE731A4002808C
:101FD000704731B1B0F8442042F40042A0F84420E8
:101FE00005E0B0F84420C2F30E02A0F84420704788
:101FF00030B50246002000230024158A05EA0103BB
:10200000958905EA010413B10CB1012000E000201C
:1020100030BD1AB183890B43838102E083898B43EE
:10202000838170470EB501210420FFF799FD40F22E
:10203000CF20ADF804006320ADF800000020ADF81B
:102040000600ADF802006946064800F069F9012271
:1020500011460448FFF7DDFF01210248FFF7ADFFFD
:102060000EBD00000008004070B5002400220023CF
:10207000058C4FF6FE7635400584028C8388048BF0
:102080004FF68F752C40B51E2C400D882C43751EC5
:102090002A400D892A434D882A43144DA8420BD06B
:1020A000134DA84208D0134DA84205D0124DA842A6
:1020B00002D0124DA84213D14FF6F7752A404D8930
:1020C0002A434FF6FB752A408D882A434FF6FF6559
:1020D0002B404FF6FF552B408D892B43CD892B4349
:1020E00083800483CD888586028470BD002C0140E6
:1020F00000340140004001400044014000480140DC
:102100000A460021018B4FF6F773194011430183F2
:102110007047000070B5002400220023058C4FF6A4
:10212000EF7635400584028C8388048B48F6FF7572
:102130002C404FF6FF452C400D884FF6FF7606EAFF
:1021400005252C434FF6DF752A400D8906EA051553
:102150002A434D8806EA05152A43154DA84202D0A8
:10216000144DA8421DD14FF67F752A404D894FF678
:10217000FF7606EA05152A434FF6BF752A408D887B
:1021800006EA05152A434FF6FF352B404FF2FF753F
:102190002B408D8906EA85052B43CD8906EA850506
:1021A0002B4383800483CD880587028470BD0000A3
:1021B000002C0140003401400A460021018B4FF2FF
:1021C000FF7319404FF6FF7303EA0223194301839B
:1021D0007047000070B5002400220023058C4FF6E4
:1021E000FF6635400584028C8388848B4FF68F759B
:1021F0002C404FF6FC752C400D882C434FF6FF55B4
:102200002A400D894FF6FF7606EA05252A434D88B8
:1022100006EA05252A43154DA84202D0144DA842CE
:102220001DD14FF2FF752A404D894FF6FF7606EA21
:1022300005252A434FF6FF352A408D8806EA0525F5
:102240002A434EF6FF752B404DF6FF752B408D89C6
:1022500006EA05152B43CD8906EA05152B43838035
:102260008483CD888587028470BD0000002C0140E6
:10227000003401400A460021818B4FF6F773194064
:10228000114381837047000070B5002200230024B1
:10229000058C4EF6FF7635400584038C8488828B4E
:1022A00048F6FF752A404FF6FF452A400D884FF645
:1022B000FF7606EA05252A434DF6FF752B400D896A
:1022C00006EA05352B434D8806EA05352B430B4DB1
:1022D000A84202D00A4DA84208D14BF6FF752C4007
:1022E0008D894FF6FF7606EA85152C43848082831C
:1022F000CD88A0F84050038470BD0000002C014040
:10230000003401400A460021818B4FF2FF731940CF
:102310004FF6FF7303EA02231943818370470000DD
:10232000002202881D4B98420ED01D4B98420BD0C4
:10233000B0F1804F08D01B4B984205D01A4B984201
:1023400002D01A4B984204D14FF68F731A404B8833
:102350001A43174B984207D0164B984204D04FF6B9
:10236000FF431A40CB881A4302808B8883850B88F1
:1023700003850A4B98420BD0094B984208D00E4B6C
:10238000984205D00D4B984202D00D4B984201D196
:102390000B7A03860123838270470000002C0140E2
:1023A000003401400004004000080040000C0040E0
:1023B0000010004000140040004001400044014073
:1023C0000048014010B55848008800B257490880BD
:1023D0005548408800B248805348808800B28880C1
:1023E0005148C08800B2524908804F48008900B265
:1023F00048804D48408900B288804B498889FEF763
:1024000002F804464B49FDF748FF4B49086046492E
:10241000C889FDF7F8FF04464649FDF73EFF4649E7
:1024200048604149088AFDF7EEFF04464149FDF73F
:1024300034FF414988603C49488AFDF7E4FF04467F
:102440003C49FDF72AFF3D4908603749888AFDF776
:10245000DAFF04463749FDF720FF38494860324922
:10246000C88AFDF7D0FF04463249FDF716FF33490D
:1024700088602D49C88BFDF7C6FF04462D49FDF73E
:102480000CFF2F4908602849088CFDF7BCFF044663
:102490002849FDF702FF2A4948602349488CFDF787
:1024A000B2FF04462349FDF7F8FE254988601E491E
:1024B000888CFDF7A8FF04461E49FDF7EEFE214972
:1024C00008601949C88CFDF79EFF04461949FDF7BD
:1024D000E4FE1C4948601449088DFDF794FF04464A
:1024E0001449FDF7DAFE174988600F49088EFDF799
:1024F0008AFF04460F49FDF7D0FE134908600A49D8
:10250000488EFDF780FF04460A49FDF7C6FE0E49D6
:1025100048600549888EFDF776FF04460549FDF7BA
:10252000BCFE0949886010BDB40600203A000020B6
:102530003400002000007A445C0700209807002047
:10254000100800204C080020C408002038B5DE48E0
:10255000007820B10020DC490870FFF73FF9DB4824
:10256000007848B30020D9490870D9494868FDF778
:1025700079FF0446102003232246202100900A20E0
:10258000FFF7D8F9D2490868FDF76CFF0446102020
:1025900003232246302100900A20FFF7CBF9CC49D3
:1025A0008868FDF75FFF04461020032322462021A0
:1025B00000902820FFF7BEF9C6480078A8B1002097
:1025C000C4490870C448007801280ED1C348007877
:1025D000C34909880844C3490880C0480078C049F5
:1025E0000988401ABF490C310880BF480078B0B153
:1025F0000020BD490870FEF7F3FD10200523009070
:10260000BA48302102680846FFF794F910200523E4
:102610000090B748002102683220FFF78BF9B548D7
:10262000008800F40040002875D01023B24A1946F3
:102630000A20FFF7C9F9B0480078412806D1BE2327
:102640001A4619461846FEF74DFFC6E0AA4800781C
:10265000422806D196231A4619461846FEF742FF2D
:10266000BBE0A5480078432814D164231A461946D4
:102670001846FEF737FFBE209A49088099490C3169
:102680000880934840689D490860914800689C49CB
:102690000860A2E098480078532805D100209949A5
:1026A00008708D49087098E093480078522803D14B
:1026B00001209449087090E08F480078512802D199
:1026C00000F056FB89E08C480078582805D18E48E8
:1026D000008864308C4908807FE08748007859285A
:1026E00005D18948008864388749088075E08248A8
:1026F00000784D2805D185480088643083490880DA
:102700006BE07D4800784D2806D180480088643809
:102710007E49088061E063E0774800784E2805D163
:102720007B48008864307A49088056E07248007817
:102730004B2805D1764800886438754908804CE0FC
:102740006D4800784C2803D101206349087044E0AB
:1027500069480078452805D160480078801C5F49A9
:1027600008703AE064480078462805D15B48007854
:10277000801E5A49087030E05F4800784F2807D122
:10278000642058490880BE2056490C31088024E056
:102790005948007847281AD100F0EAFA5C480088C6
:1027A00000F03CFA00F086FA5748008800F036FA4C
:1027B00000F0DEFA5548008800F030FA00F0E2FA46
:1027C0005148008800F02AFA00F0D2FA05E06423AC
:1027D0001A4619461846FEF785FE0020454908802E
:1027E0004448408800F4004000286BD049484078B5
:1027F00030386421484347498978303901EB8101F9
:1028000000EB41014348C0783038084400B24249E7
:102810000880404840793038642148433D498979EF
:10282000303901EB810100EB41013A48C079303881
:10283000084400B239490880084600885A3800B276
:102840000880354800885A3800B233490880084665
:10285000B0F90000FDF7CEFD05462946304800F0EE
:1028600044FA0446FDF7E5FD00B22E4908802B48E6
:10287000B0F90000FDF7BEFD054629462A4800F0E4
:1028800034FA0446FDF7D5FD00B2284908802548F2
:1028900000880988084400B2114908800846B0F948
:1028A00000000F2801DD0F2008800D48B0F900005E
:1028B00010F10F0F03DA6FF00E00094908800020B5
:1028C0000C49488038BD00000E0000200C0000209C
:1028D0001C0900200D000020600000205E00002088
:1028E0006E000020342C014010000020D800002091
:1028F000A40000200400002024010020800000200B
:102900007C0000205F00002076000020780000207E
:1029100074000020EC0100206A0000206C00002000
:102920002807002070000020F4060020720000201C
:1029300010B540F22551144800F07CF810B312484D
:1029400000F034F9C4B21148008800F40040C8B95E
:102950000A2C06D10D48008840F400400B4908803D
:1029600010E00A480088C0F30D0009490C540748DC
:102970000088401C0549088008460088C72801DDFA
:102980000020088010BD0000003801400400002035
:102990002401002010B540F225511D4800F04AF8EE
:1029A00010B31B4800F002F9C4B21A48408800F482
:1029B0000040C8B91748408800F4804060B10A2C34
:1029C00003D000201349488020E01248408840F49A
:1029D00000401049488019E00D2C06D10D48408870
:1029E00040F480400B49488010E00A484088C0F31A
:1029F0000D0009490C5407484088401C054948808F
:102A000008464088C72801DD0020488010BD00002E
:102A10000044004004000020EC01002021B1828924
:102A200042F40052828104E082894DF6FF731A401D
:102A30008281704770B502460024002300250020E3
:102A400040F66A16B14200D100BFC1F3421501F051
:102A50001F03012606FA03F3012D02D196893340A4
:102A600006E0022D02D1168A334001E0968A3340F7
:102A70000C12012606FA04F41688344013B10CB186
:102A8000012000E0002070BDF0B5034600240026C0
:102A90000025002040F66A17B94200D100BF184651
:102AA000C1F3421401F01F06012707FA06F5012CB5
:102AB00001D10C3004E0022C01D1103000E01430C0
:102AC0001AB107682F43076002E00768AF43076049
:102AD000F0BD00002DE9F04786B005460E46002403
:102AE000A24600BFA1460027B08900B100BF2F4613
:102AF0002C8A4CF6FF700440F08804432C82AC8989
:102B00004EF6F3100440B0883189084371890843B8
:102B10000443AC81AC8A4FF6FF400440B0890443C3
:102B2000AC8201A8FFF73CF81F48874202D1DDF8CC
:102B300010A001E0DDF80CA0A88900F4004040B12D
:102B40000AEBCA0000EB0A1031684900B0FBF1F84B
:102B500007E00AEBCA0000EB0A1031688900B0FBFD
:102B6000F1F86420B8FBF0F004012009642101FBB6
:102B70001089A88900F4004040B1322000EBC90060
:102B8000B0FBF1F000F00700044308E0322000EB56
:102B900009106421B0FBF1F000F00F0004432C8118
:102BA00006B0BDE8F0870000003801400146888883
:102BB000C0F30800704700BFFEE702E008C8121F1C
:102BC00008C1002AFAD170477047002001E001C116
:102BD000121F002AFBD1704710B56FF00400FFF7F9
:102BE000E9F80A4800680A49B0FBF1F009490870A1
:102BF0000846007800EB4001C1EBC0104FF6FF71B2
:102C000001EAC0000449088010BD00002000002037
:102C100000127A00080000200A0000200146114A34
:102C200012884A434FF0E0235A6100229A611A4603
:102C3000126942F001021A6100BF4FF0E0221069F0
:102C400000F001021AB100F48032002AF5D04FF0F2
:102C5000E022126922F001024FF0E0231A61002203
:102C60009A6170470A0000200146114A12784A43CF
:102C70004FF0E0235A6100229A611A46126942F02D
:102C800001021A6100BF4FF0E022106900F001025A
:102C90001AB100F48032002AF5D04FF0E022126918
:102CA00022F001024FF0E0231A6100229A6170477E
:102CB00008000020BE2003490880642001490C312F
:102CC00008807047342C0140FFF7BAF801E0FFF7A5
:102CD0003DFCFCE710B50246012000E050430B002C
:102CE000A1F10104E1B2F9D110BD2DE9F041044692
:102CF0000D46A561A16AA069FDF79DFA0746216A04
:102D0000FDF741FA2062E16A206AFDF7C9FB02D2B1
:102D1000E06A206206E0216B206AFDF7B7FB01D272
:102D2000206B2062D4E90601FDF77FFA0746A16A0D
:102D3000FDF7B3FA6062A1692068FDF77CFAE060F4
:102D4000216A6068FDF777FA2061616AA068FDF783
:102D500072FA6061D4E90301FDF715FA074661696B
:102D6000FDF711FA0646A069E0613046BDE8F08142
:102D7000A0200349088002490C31088070470000F8
:102D8000342C0140642003490880BE2001490C31E5
:102D900008807047342C014010B586B004460121EC
:102DA00044F20400FEF7ECFE4FF40070ADF814009E
:102DB00003208DF8160018208DF8170005A91C486F
:102DC000FDF7A2FC4FF48060ADF8140004208DF8EC
:102DD000170005A91648FDF797FC25208DF800007F
:102DE00003208DF801008DF8020001208DF803000A
:102DF0006846FEF79DFB01940020ADF80800ADF891
:102E00000A00ADF80C00ADF810000C20ADF80E0073
:102E100001A90848FFF75EFE012240F2255105484E
:102E2000FFF732FE01210348FFF7F8FD06B010BDA1
:102E3000000801400038014010B586B00446012169
:102E40004804FEF78DFE01210420FEF799FE0420C0
:102E5000ADF8140003208DF8160018208DF8170027
:102E600005A91548FDF750FC0820ADF81400042012
:102E70008DF8170005A91048FDF746FC01940020C5
:102E8000ADF80800ADF80A00ADF80C00ADF8100080
:102E90000C20ADF80E0001A90848FFF71BFE012227
:102EA00040F225510548FFF7EFFD01210348FFF7E8
:102EB000B5FD06B010BD0000000801400044004010
:102EC0000000000000000000000000000000000002
:102ED0003F400000000000000000300040003000D3
:102EE0004000000009000BC03D000BC03D00090080
:102EF00018C024407FE0224031800000180024C028
:102F00001B000D803240018003801C4027401C8044
:102F100007400040100060000000000000000000BA
:102F20000000000000001F802040402000004020E2
:102F300020401F8000000000090006001F800600DE
:102F400009000000040004003F80040004000000A9
:102F500000100060000000000000000004000400F9
:102F60000400040004000000000000400000000015
:102F700000000000002001C00600380040000000F2
:102F80001F802040204020401F8000000000104093
:102F90003FC000400000000018C0214022402440F3
:102FA0001840000010802040244024401B80000076
:102FB00002000D0011003FC0014000003C80244091
:102FC00024402440238000001F80244024403440BB
:102FD000038000003000200027C0380020000000DF
:102FE0001B802440244024401B8000001C0022C081
:102FF000224022401F800000000000000840000026
:10300000000000000000000004600000000000005C
:10301000000004000A00110020804040090009005F
:103020000900090009000000000040402080110054
:103030000A000400180020002340240018000000AB
:103040001F802040274029401F400000004007C04B
:1030500039000F0001C0004020403FC02440244000
:103060001B8000001F802040204020403080000056
:1030700020403FC0204020401F80000020403FC033
:1030800024402E4030C0000020403FC024402E008D
:10309000300000000F0010802040224033800200EA
:1030A00020403FC0040004003FC02040204020409A
:1030B0003FC02040204000000060202020203FC072
:1030C0002000200020403FC024400B0030C02040A2
:1030D00020403FC020400040004000C03FC03C00B6
:1030E00003C03C003FC0000020403FC00C40230014
:1030F0003FC020001F802040204020401F80000053
:1031000020403FC024402400180000001F802140C0
:10311000214020E01FA0000020403FC024402600A6
:1031200019C0004018C024402440224031800000D3
:10313000300020403FC020403000000020003F8091
:10314000004000403F80200020003E0001C00700FA
:1031500038002000380007C03C0007C038000000DD
:10316000204039C0060039C020400000200038400F
:1031700007C0384020000000304021C026403840C1
:1031800020C00000000000007FE040204020000040
:10319000000070000C000380004000000000402090
:1031A00040207FE0000000000000200040002000E0
:1031B00000000000001000100010001000100010AF
:1031C000000000004000000000000000000002803D
:1031D0000540054003C0004020003FC004400440BB
:1031E000038000000000038004400440064000000B
:1031F00000000380044024403FC0004000000380E2
:103200000540054003400000000004401FC024406A
:1032100024402000000002E0055005500650042024
:1032200020403FC00440040003C0004000000440B0
:1032300027C000400000000000100010041027E02C
:103240000000000020403FC00140070004C00440CF
:10325000204020403FC000400040000007C0040064
:1032600007C0040003C00000044007C0044004007D
:1032700003C00040000003800440044003800000BD
:10328000041007F004500440038000000000038095
:103290000440045007F00010044007C0024004003E
:1032A00004000000000006400540054004C0000086
:1032B000000004001F80044000400000040007805C
:1032C0000040044007C000400400070004C0018023
:1032D00006000400060001C0070001C0060000004F
:1032E000044006C0010006C004400000041007109E
:1032F00004E00180060004000000044005C0064010
:10330000044000000000000004007BE040200000BA
:10331000000000000000FFF000000000000040205E
:103320007BE004000000000040008000400020001E
:10333000200040000000000000000000000000002D
:10334000000000000000000000001FCC000C000086
:10335000000000000000080030006000080030009D
:1033600060000000022003FC1E20022003FC1E203F
:103370000220000000000E1811043FFF10840C789A
:10338000000000000F0010840F3800C00778188478
:103390000078000000780F8410C411240E9800E417
:1033A00000840008080068007000000000000000B1
:1033B0000000000000000000000007E018182004D2
:1033C00040020000000040022004181807E000003E
:1033D000000000000240024001800FF00180024026
:1033E000024000000080008000800FF80080008014
:1033F000008000000001000D000E00000000000031
:10340000000000000000008000800080008000803C
:10341000008000800000000C000C00000000000094
:103420000000000000000006001800600180060097
:1034300018002000000007F0080810041004080815
:1034400007F000000000080408041FFC000400044A
:103450000000000000000E0C101410241044118411
:103460000E0C000000000C18100411041104128846
:103470000C700000000000E00320042408241FFC5E
:103480000024000000001F9810841104110410880B
:1034900010700000000007F008881104110418885B
:1034A0000070000000001C00100010FC13001C0045
:1034B0001000000000000E381144108410841144E4
:1034C0000E38000000000700088C104410440888E3
:1034D00007F00000000000000000030C030C0000D7
:1034E00000000000000000000001010600000000D4
:1034F00000000000000000800140022004100808C5
:1035000010040000022002200220022002200220DB
:1035100002200000000010040808041002200140EE
:103520000080000000000E001200100C106C1080D3
:103530000F00000003E00C1813E4142417C408283B
:1035400007D000000004003C03C41C40074000E416
:10355000001C000410041FFC1104110411040E8847
:103560000070000003E00C18100410041004100890
:103570001C10000010041FFC1004100410040808A4
:1035800007F0000010041FFC1104110417C41004FC
:103590000818000010041FFC1104110017C01000CF
:1035A0000800000003E00C181004100410441C78FC
:1035B0000040000010041FFC108400800080108474
:1035C0001FFC10040000100410041FFC1004100461
:1035D0000000000000030001100110011FFE100098
:1035E0001000000010041FFC110403801464181C58
:1035F0001004000010041FFC100400040004000468
:10360000000C000010041FFC1F0000FC1F001FFC2A
:103610001004000010041FFC0C04030000E010184C
:103620001FFC100007F0080810041004100408081C
:1036300007F0000010041FFC108410801080108020
:103640000F00000007F0081810241024101C080AAE
:1036500007F2000010041FFC1104110011C011300A
:103660000E0C000400000E1C110410841084104481
:103670001C3800001800100010041FFC100410007B
:103680001800000010001FF81004000400041004CB
:103690001FF8100010001E0011E0001C00701380C5
:1036A0001C0010001FC0103C00E01F0000E0103C98
:1036B0001FC000001004180C163401C001C01634DD
:1036C000180C100410001C00130400FC13041C0050
:1036D000100000000804101C1064108413041C0463
:1036E000101800000000000000007FFE40024002B1
:1036F00040020000000030000C0003800060001C4D
:103700000003000000004002400240027FFE000073
:1037100000000000000000002000400040004000C9
:103720002000000000010001000100010001000173
:1037300000010001000040004000200000000000E7
:1037400000000000000000980124014401440144ED
:1037500000FC000410001FFC008801040104008824
:1037600000700000000000700088010401040104E2
:1037700000880000000000700088010401041108A6
:103780001FFC0004000000F801440144014401440E
:1037900000C800000000010401040FFC1104110422
:1037A00011001800000000D601290129012901C9D2
:1037B0000106000010041FFC008401000100010448
:1037C00000FC000400000104190419FC00040004BA
:1037D000000000000000000300010101190119FEB2
:1037E0000000000010041FFC0024004001B4010C84
:1037F000010400000000100410041FFC0004000479
:1038000000000000010401FC0104010001FC0104AE
:10381000010000FC010401FC00840100010001041E
:1038200000FC0004000000F801040104010401048C
:1038300000F80000010101FF008501040104008877
:103840000070000000000070008801040104010500
:1038500001FF00010104010401FC008401040100D6
:1038600001800000000000CC012401240124012477
:103870000198000000000100010007F801040104A4
:1038800000000000010001F8000400040004010829
:1038900001FC0004010001800170000C00100160B7
:1038A0000180010001F0010C003001C00030010C6A
:1038B00001F0010000000104018C00740170018C12
:1038C00001040000010101810171000E0018016076
:1038D0000180010000000184010C013401440184D5
:1038E000010C0000000000000000000001003EFC90
:1038F000400240020000000000000000FFFF000046
:10390000000000000000400240023EFC01000000F8
:1039100000000000000060008000800040004000C7
:103920002000200000000000000000000000000057
:103930000000000000000000000000000000000087
:103940000000000000000000000000000000000077
:10395000000000000000000F80380FFE380F803894
:103960000000000000000000000000000000000057
:1039700000000100000600000C00003800003100CB
:10398000000600000C0000380000300000000000BD
:103990000000000061800067F807F9800061800086
:1039A00061800061800061800067F807F980006134
:1039B0008000000000000000000001C0E003E0F013
:1039C0000630080418081FFFFE040E080787F003DE
:1039D00081E000000000000001F000060C0004047B
:1039E00008060C7001F9C0000E00003BE000EC1866
:1039F000070808040C180003E00000000001E000C4
:103A000007F003F818041C0804170807E1D003C0E6
:103A1000E00023B0003C0800200800001000000077
:103A20000000000100003100003200001C00000016
:103A30000000000000000000000000000000000086
:103A40000000000000000000000000000000000076
:103A5000000000007F0001FFC00780F00C0018107C
:103A600000042000020000000000002000021000FE
:103A7000040C00180780F001FFC0007F0000000068
:103A80000000000000000000000000000000000036
:103A90004200006600006600003C0000180003FFC2
:103AA000C0001800003C00006600006600004200F4
:103AB00000000000080000080000080000080000E6
:103AC000080001FFC000080000080000080000080E
:103AD000000008000000000000010000310000327A
:103AE00000001C00000000000000000000000000BA
:103AF00000000000000000000000000008000008B6
:103B0000000008000008000008000008000008008D
:103B1000000800000800000800000000000000008D
:103B200000000000380000380000380000000000ED
:103B30000000000000000000000000000000000085
:103B400000000000000600001C0000700001800062
:103B50000E0000380000C0000700001C000030000C
:103B600000000000000000007F8001FFE003807083
:103B700006001804000804000806001803807001FD
:103B8000FFE0007F80000000000000000000010056
:103B90000801000801000803FFF807FFF80000080B
:103BA0000000080000080000000000000000000104
:103BB000C03802C058040098040118040218040414
:103BC00018061C1803F81801E0F8000000000000B7
:103BD00000000001C0E003C0F0040008040808046D
:103BE000080806180803F41801E7F00001E00000D7
:103BF00000000000000000000300000D00001100A4
:103C000000610000810803010807FFF80FFFF800BA
:103C100001080001080000000000000000E007FCAF
:103C2000D0060808061008061008061008061838FE
:103C3000060FF00607C000000000000000000000B2
:103C40003F8001FFE00384300208180410080410CC
:103C500008041008071810030FF00007C000000048
:103C600000000000000003C000070000060000067E
:103C700000F80607F806180006E000070000060036
:103C80000000000000000001E1E003F7F00634103E
:103C9000041808041808040C08040C080616180375
:103CA000F3F001C1E000000000000000F80003FC98
:103CB0003003063804020804020804020804041051
:103CC0000308F001FFC0007F0000000000000000BA
:103CD00000000000000000000000000070380070CC
:103CE00038007038000000000000000000000000F4
:103CF00000000000000000000000000000000000C4
:103D0000301A00301C00000000000000000000001D
:103D10000000000000000000000000080000140087
:103D200000220000410000808001004002002004C9
:103D30000010080008000000000000002100002121
:103D400000002100002100002100002100002100CE
:103D50000021000021000021000000000000000000
:103D6000000008000804001002002001004000804C
:103D70008000410000220000140000080000000044
:103D800000000003C00004C0000400000800380860
:103D90000F380808380810000C300007E00003C096
:103DA00000000000000000003F8000FFE003807082
:103DB000020F1006708804C088048308047F8802FC
:103DC000C09003012000FE40000008000018000120
:103DD000F8003E0801C20007020007E20000FE00F2
:103DE000001FC80001F800003800000804000807A0
:103DF000FFF807FFF8040808040808040808040886
:103E00000806180803F41801E7F00001E0000000BC
:103E1000000000003F8001FFE003807002001804F2
:103E200000080400080400080400100600200780B1
:103E3000C000000004000807FFF807FFF8040008AE
:103E40000400080400080400180200100380700138
:103E5000FFE0007F8000000004000807FFF807FF74
:103E6000F8040808040808040808040808043E08C0
:103E700004000806001801006000000004000807A4
:103E8000FFF807FFF8040808040800040800040805
:103E900000043E0006000006000001800000000053
:103EA000000000003F8001FFE0038070060018045E
:103EB00000080402080402080203F00783F000026D
:103EC0000000020004000807FFF807FFF8040808D4
:103ED00000080000080000080000080004080807A7
:103EE000FFF807FFF80400080000000000000400CD
:103EF0000804000804000807FFF807FFF80400089A
:103F00000400080400080000000000000000000099
:103F10000006000007000001040001040001040085
:103F20000307FFFE07FFFC0400000400000400007C
:103F300004000807FFF807FFF8040C080018000049
:103F40003E0004C7800503C80600F80400380400DA
:103F50001800000804000807FFF807FFF80400082D
:103F60000000080000080000080000080000080029
:103F7000001800006000000004000807FFF8078038
:103F80000807FC00007FC00003F80007C0007800AD
:103F900007800807FFF807FFF80400080400080777
:103FA000FFF807000803C00000E000003800001E12
:103FB000000007000001C00400F007FFF804000043
:103FC000000000007F8001FFE003807006001804FD
:103FD000000804000806001803003001FFE0007F1D
:103FE0008000000004000807FFF807FFF804040839
:103FF000040400040400040400040400060C00038C
:10400000F80001F000000000000000007F8001FFC8
:10401000E00380700600880400880400C806003CA5
:1040200003003E01FFE6007F840000000400080753
:10403000FFF807FFF8040808040800040C00040F48
:1040400000040BC00610F003F03801E0080000087F
:1040500000000001E0F803F03006301004180804F6
:104060001808040C08040C080206180207F007815F
:10407000E0000000018000060000040000040000D1
:1040800004000807FFF807FFF80400080400000414
:10409000000006000001800004000007FFE007FFA9
:1040A000F0040018000008000008000008000008E4
:1040B00000000804001007FFE004000004000006F0
:1040C000000007E00007FE00041FE00001F8000008
:1040D000380001E0043E0007C000060000040000B4
:1040E00004000007E00007FFC0041FF80007C00736
:1040F000F80007FF80043FF80007C004F80007003D
:104100000004000000000004000806001807C07842
:1041100005F1C8003E00001F800463E80780F80630
:1041200000180400080000000400000600000780DA
:104130000007E008047C08001FF80007F8001808D2
:1041400004E0080700000600000400000000000171
:1041500000080600380400F80403E8040F08047C93
:104160000805F00807C008070018040060000000F8
:104170000000000000000000000000000000003F00
:10418000FFFE20000220000220000220000220008A
:10419000020000000000000000000800000700000E
:1041A00000C0000038000006000001C00000300020
:1041B000000E0000010000000000000000002000D0
:1041C000022000022000022000022000023FFFFE29
:1041D00000000000000000000000000000000000DF
:1041E0000000000000080000100000300000200067
:1041F0000030000010000008000000000000000077
:1042000000000100000100000100000100000100A9
:104210000001000001000001000001000001000099
:10422000010000010000000000000000002000006C
:10423000200000100000100000000000000000003E
:1042400000000000000000000000000000F0001965
:10425000F8001B180022080026080024080024107B
:10426000003FF8001FF800000800001800000004DC
:10427000000007FFF80FFFF00018180010080020DA
:1042800008002008003018001FF0000FC0000000D8
:104290000000000007C0001FF000183000200800D8
:1042A0002008002008003C08001C100000600000EE
:1042B000000000000000000007C0001FF0003818D8
:1042C00000200800200800200804101007FFF80F45
:1042D000FFF00000100000000000000000000007D8
:1042E000C0001FF00012300022180022080022082F
:1042F000003208001E10000E200000000000000028
:10430000200000200800200801FFF803FFF8062025
:104310000804200804200807200003000000000013
:1043200000000000000E000E6E001FF30031B1000F
:1043300020B10020B1003191001F13002E1E00207B
:104340000E00300000000004000807FFF80FFFF81F
:10435000001008002000002000002008003FF800A6
:104360001FF800000800000000000000000000200E
:1043700008002008002008063FF8063FF800000863
:10438000000008000008000000000000000000001D
:1043900000000000030000030020010020010020B5
:1043A00003063FFE063FFC00000000000000000086
:1043B00000000004000807FFF80FFFF80001880064
:1043C0000300002FC00038F800203800200800004B
:1043D00008000000000000000000040008040008BD
:1043E00004000807FFF80FFFF800000800000800AD
:1043F0000008000000000000002008003FF8003F17
:10440000F8001008002000003FF8003FF8001008F6
:10441000002000003FF8003FF80000080000000006
:104420002008003FF8003FF80010080010000020AE
:1044300000002008003FF8001FF8000008000000FE
:104440000000000007C0000FF00018300030080026
:104450002008002008003008001830000FF0000786
:10446000C0000000000000002001003FFF003FFFEF
:10447000001011002009002008002008003038003A
:104480001FF0000FC00000000000000007C0001F68
:10449000F000381800200800200800200900101142
:1044A000001FFF003FFF0000010000000020080087
:1044B0002008002008003FF8003FF800080800101E
:1044C000080020080020000030000030000000003C
:1044D000000000000000000C78001E1800330800E7
:1044E00023080021080021880021980030F00038BE
:1044F00060000000000000002000002000002000FC
:1045000000FFF003FFF8002008002008002008004A
:104510000030000000000000000000002000003F0C
:10452000F0007FF8000018000008000008002010CC
:10453000003FF8007FF000001000000000000000C5
:104540002000003000003C00003F800023F000000D
:1045500078000070002380003C0000300000200044
:10456000002000003C00003FE00023F80000E000D5
:104570002700003E00003FE00021F80001E0003E7F
:10458000000020000000000020080020080038384B
:10459000003E680027800003C8002CF8003838006F
:1045A000201800200800000000000000200000305B
:1045B00003003C01003F830023EC000070002380D7
:1045C000003C00002000002000000000000000006F
:1045D00000000038080020380020F80023E8002FF1
:1045E00088003E0800380800201800007000000015
:1045F00000000000000000000000000000000000BB
:1046000008000014001FF7FC300006200002000024
:10461000000000000000000000000000000000009A
:10462000000000000000FFFFFF000000000000008D
:10463000000000000000000000000000000020005A
:10464000023000061FF7FC00140000080000000004
:104650000000000000000000000000000000001842
:10466000000060000040000040000020000010003A
:10467000000800000400000400000C00001000000E
:10468000A04600080000002024010000BA2B00080A
:10469000C447000824010020740C0000CA2B000845
:1046A000000000000000000000000000000000000A
:1046B00000000000000000000000000000000000FA
:1046C00000A24A04000000000000000001020304F0
:1046D00006070809000000000000000000000000BC
:1046E00000000000000000000000000000000000CA
:1046F0000000000000000000000000000000AA0010
:1047000000000000000000000000000000000000A9
:1047100000000000D007E803E803000000000000EC
:104720000000000000000000000000000000000089
:104730000000000000000000000000000000000079
:104740000000000000000000000000000000000069
:104750000000000000000000000000000000000059
:104760000000000000000000000000000000000049
:104770000000000000000000000000000000000039
:104780000000000000000000000000000000000029
:104790000000000000000000000000000000000019
:1047A0000000000000000000000000000000000009
:1047B00000000000010203040102030406070809C7
:0447C00002040608E1
:04000005080000ED02
:00000001FF
